{
  "contractName": "myContract",
  "abi": [
    {
      "anonymous": false,
      "inputs": [
        {
          "indexed": true,
          "internalType": "address",
          "name": "previousOwner",
          "type": "address"
        },
        {
          "indexed": true,
          "internalType": "address",
          "name": "newOwner",
          "type": "address"
        }
      ],
      "name": "OwnershipTransferred",
      "type": "event"
    },
    {
      "inputs": [],
      "name": "owner",
      "outputs": [
        {
          "internalType": "address",
          "name": "",
          "type": "address"
        }
      ],
      "stateMutability": "view",
      "type": "function"
    },
    {
      "inputs": [],
      "name": "renounceOwnership",
      "outputs": [],
      "stateMutability": "nonpayable",
      "type": "function"
    },
    {
      "inputs": [
        {
          "internalType": "address",
          "name": "newOwner",
          "type": "address"
        }
      ],
      "name": "transferOwnership",
      "outputs": [],
      "stateMutability": "nonpayable",
      "type": "function"
    },
    {
      "inputs": [],
      "name": "getString",
      "outputs": [
        {
          "internalType": "string",
          "name": "",
          "type": "string"
        }
      ],
      "stateMutability": "view",
      "type": "function"
    },
    {
      "inputs": [
        {
          "internalType": "string",
          "name": "newString",
          "type": "string"
        }
      ],
      "name": "setString",
      "outputs": [],
      "stateMutability": "nonpayable",
      "type": "function"
    }
  ],
  "bytecode": "0x60806040526040518060400160405280600681526020017f537472696e6700000000000000000000000000000000000000000000000000008152506001908051906020019061004f92919061014a565b5034801561005c57600080fd5b5061007961006e61007e60201b60201c565b61008660201b60201c565b61024e565b600033905090565b60008060009054906101000a900473ffffffffffffffffffffffffffffffffffffffff169050816000806101000a81548173ffffffffffffffffffffffffffffffffffffffff021916908373ffffffffffffffffffffffffffffffffffffffff1602179055508173ffffffffffffffffffffffffffffffffffffffff168173ffffffffffffffffffffffffffffffffffffffff167f8be0079c531659141344cd1fd0a4f28419497f9722a3daafe3b4186f6b6457e060405160405180910390a35050565b8280546101569061021c565b90600052602060002090601f01602090048101928261017857600085556101bf565b82601f1061019157805160ff19168380011785556101bf565b828001600101855582156101bf579182015b828111156101be5782518255916020019190600101906101a3565b5b5090506101cc91906101d0565b5090565b5b808211156101e95760008160009055506001016101d1565b5090565b7f4e487b7100000000000000000000000000000000000000000000000000000000600052602260045260246000fd5b6000600282049050600182168061023457607f821691505b60208210811415610248576102476101ed565b5b50919050565b6108d78061025d6000396000f3fe608060405234801561001057600080fd5b50600436106100575760003560e01c8063715018a61461005c5780637fcaf6661461006657806389ea642f146100825780638da5cb5b146100a0578063f2fde38b146100be575b600080fd5b6100646100da565b005b610080600480360381019061007b9190610585565b610162565b005b61008a6101f4565b604051610097919061066b565b60405180910390f35b6100a8610286565b6040516100b591906106ce565b60405180910390f35b6100d860048036038101906100d39190610715565b6102af565b005b6100e26103a7565b73ffffffffffffffffffffffffffffffffffffffff16610100610286565b73ffffffffffffffffffffffffffffffffffffffff1614610156576040517f08c379a000000000000000000000000000000000000000000000000000000000815260040161014d9061078e565b60405180910390fd5b61016060006103af565b565b61016a6103a7565b73ffffffffffffffffffffffffffffffffffffffff16610188610286565b73ffffffffffffffffffffffffffffffffffffffff16146101de576040517f08c379a00000000000000000000000000000000000000000000000000000000081526004016101d59061078e565b60405180910390fd5b8181600191906101ef929190610473565b505050565b606060018054610203906107dd565b80601f016020809104026020016040519081016040528092919081815260200182805461022f906107dd565b801561027c5780601f106102515761010080835404028352916020019161027c565b820191906000526020600020905b81548152906001019060200180831161025f57829003601f168201915b5050505050905090565b60008060009054906101000a900473ffffffffffffffffffffffffffffffffffffffff16905090565b6102b76103a7565b73ffffffffffffffffffffffffffffffffffffffff166102d5610286565b73ffffffffffffffffffffffffffffffffffffffff161461032b576040517f08c379a00000000000000000000000000000000000000000000000000000000081526004016103229061078e565b60405180910390fd5b600073ffffffffffffffffffffffffffffffffffffffff168173ffffffffffffffffffffffffffffffffffffffff16141561039b576040517f08c379a000000000000000000000000000000000000000000000000000000000815260040161039290610881565b60405180910390fd5b6103a4816103af565b50565b600033905090565b60008060009054906101000a900473ffffffffffffffffffffffffffffffffffffffff169050816000806101000a81548173ffffffffffffffffffffffffffffffffffffffff021916908373ffffffffffffffffffffffffffffffffffffffff1602179055508173ffffffffffffffffffffffffffffffffffffffff168173ffffffffffffffffffffffffffffffffffffffff167f8be0079c531659141344cd1fd0a4f28419497f9722a3daafe3b4186f6b6457e060405160405180910390a35050565b82805461047f906107dd565b90600052602060002090601f0160209004810192826104a157600085556104e8565b82601f106104ba57803560ff19168380011785556104e8565b828001600101855582156104e8579182015b828111156104e75782358255916020019190600101906104cc565b5b5090506104f591906104f9565b5090565b5b808211156105125760008160009055506001016104fa565b5090565b600080fd5b600080fd5b600080fd5b600080fd5b600080fd5b60008083601f84011261054557610544610520565b5b8235905067ffffffffffffffff81111561056257610561610525565b5b60208301915083600182028301111561057e5761057d61052a565b5b9250929050565b6000806020838503121561059c5761059b610516565b5b600083013567ffffffffffffffff8111156105ba576105b961051b565b5b6105c68582860161052f565b92509250509250929050565b600081519050919050565b600082825260208201905092915050565b60005b8381101561060c5780820151818401526020810190506105f1565b8381111561061b576000848401525b50505050565b6000601f19601f8301169050919050565b600061063d826105d2565b61064781856105dd565b93506106578185602086016105ee565b61066081610621565b840191505092915050565b600060208201905081810360008301526106858184610632565b905092915050565b600073ffffffffffffffffffffffffffffffffffffffff82169050919050565b60006106b88261068d565b9050919050565b6106c8816106ad565b82525050565b60006020820190506106e360008301846106bf565b92915050565b6106f2816106ad565b81146106fd57600080fd5b50565b60008135905061070f816106e9565b92915050565b60006020828403121561072b5761072a610516565b5b600061073984828501610700565b91505092915050565b7f4f776e61626c653a2063616c6c6572206973206e6f7420746865206f776e6572600082015250565b60006107786020836105dd565b915061078382610742565b602082019050919050565b600060208201905081810360008301526107a78161076b565b9050919050565b7f4e487b7100000000000000000000000000000000000000000000000000000000600052602260045260246000fd5b600060028204905060018216806107f557607f821691505b60208210811415610809576108086107ae565b5b50919050565b7f4f776e61626c653a206e6577206f776e657220697320746865207a65726f206160008201527f6464726573730000000000000000000000000000000000000000000000000000602082015250565b600061086b6026836105dd565b91506108768261080f565b604082019050919050565b6000602082019050818103600083015261089a8161085e565b905091905056fea2646970667358221220c41d20eaf0fe3f71c218f7e0e25ab932005225a8e30800a134585445b87645f664736f6c63430008090033",
  "immutableReferences": {},
  "source": "// Define the version of Solidity to use for this Smart Contract\n// SPDX-License-Identifier: MIT\npragma solidity >=0.7.0;\n\n// Import OpenZeppelin Ownable Smart Contract\nimport \"@openzeppelin/contracts/access/Ownable.sol\";\n\n// Define your Smart Contract with the \"Contract\" keyword\ncontract myContract is Ownable {\n    string private _myString = \"String\";\n\n    function getString() external view returns (string memory) {\n        return _myString;\n    }\n\n    function setString(string calldata newString) external onlyOwner {\n        _myString = newString;\n    }\n}\n",
  "sourcePath": "/Users/promid2015/Desktop/Code/Business/Nzouat/content/MyContract/contracts/myContract.sol",
  "compiler": {
    "name": "solc",
    "version": "0.8.9+commit.e5eed63a.Emscripten.clang"
  },
  "schemaVersion": "3.4.3",
  "updatedAt": "2021-11-06T10:08:31.968Z",
  "devdoc": {
    "kind": "dev",
    "methods": {
      "owner()": {
        "details": "Returns the address of the current owner."
      },
      "renounceOwnership()": {
        "details": "Leaves the contract without owner. It will not be possible to call `onlyOwner` functions anymore. Can only be called by the current owner. NOTE: Renouncing ownership will leave the contract without an owner, thereby removing any functionality that is only available to the owner."
      },
      "transferOwnership(address)": {
        "details": "Transfers ownership of the contract to a new account (`newOwner`). Can only be called by the current owner."
      }
    },
    "version": 1
  },
  "userdoc": {
    "kind": "user",
    "methods": {},
    "version": 1
  }
}